{
  "address": "0x0998DcF0E369a9e65008F743ab646CFe9db1b1AA",
  "abi": [
    {
      "inputs": [
        {
          "internalType": "address",
          "name": "initialOwner",
          "type": "address"
        },
        {
          "internalType": "address",
          "name": "tokenAddress",
          "type": "address"
        }
      ],
      "stateMutability": "nonpayable",
      "type": "constructor"
    },
    {
      "inputs": [
        {
          "internalType": "uint48",
          "name": "nextClaimAt",
          "type": "uint48"
        }
      ],
      "name": "ClaimTooSoon",
      "type": "error"
    },
    {
      "inputs": [],
      "name": "InvalidToken",
      "type": "error"
    },
    {
      "inputs": [
        {
          "internalType": "address",
          "name": "owner",
          "type": "address"
        }
      ],
      "name": "OwnableInvalidOwner",
      "type": "error"
    },
    {
      "inputs": [
        {
          "internalType": "address",
          "name": "account",
          "type": "address"
        }
      ],
      "name": "OwnableUnauthorizedAccount",
      "type": "error"
    },
    {
      "anonymous": false,
      "inputs": [
        {
          "indexed": true,
          "internalType": "address",
          "name": "account",
          "type": "address"
        },
        {
          "indexed": false,
          "internalType": "uint64",
          "name": "amount",
          "type": "uint64"
        },
        {
          "indexed": false,
          "internalType": "uint48",
          "name": "nextClaimAt",
          "type": "uint48"
        }
      ],
      "name": "Claimed",
      "type": "event"
    },
    {
      "anonymous": false,
      "inputs": [
        {
          "indexed": true,
          "internalType": "address",
          "name": "previousOwner",
          "type": "address"
        },
        {
          "indexed": true,
          "internalType": "address",
          "name": "newOwner",
          "type": "address"
        }
      ],
      "name": "OwnershipTransferred",
      "type": "event"
    },
    {
      "inputs": [],
      "name": "CLAIM_AMOUNT",
      "outputs": [
        {
          "internalType": "uint64",
          "name": "",
          "type": "uint64"
        }
      ],
      "stateMutability": "view",
      "type": "function"
    },
    {
      "inputs": [],
      "name": "CLAIM_COOLDOWN",
      "outputs": [
        {
          "internalType": "uint48",
          "name": "",
          "type": "uint48"
        }
      ],
      "stateMutability": "view",
      "type": "function"
    },
    {
      "inputs": [],
      "name": "claim",
      "outputs": [],
      "stateMutability": "nonpayable",
      "type": "function"
    },
    {
      "inputs": [
        {
          "internalType": "address",
          "name": "account",
          "type": "address"
        }
      ],
      "name": "nextClaimTimes",
      "outputs": [
        {
          "internalType": "uint48",
          "name": "nextClaimAt",
          "type": "uint48"
        }
      ],
      "stateMutability": "view",
      "type": "function"
    },
    {
      "inputs": [],
      "name": "owner",
      "outputs": [
        {
          "internalType": "address",
          "name": "",
          "type": "address"
        }
      ],
      "stateMutability": "view",
      "type": "function"
    },
    {
      "inputs": [],
      "name": "renounceOwnership",
      "outputs": [],
      "stateMutability": "nonpayable",
      "type": "function"
    },
    {
      "inputs": [],
      "name": "token",
      "outputs": [
        {
          "internalType": "contract ICUSDCToken",
          "name": "",
          "type": "address"
        }
      ],
      "stateMutability": "view",
      "type": "function"
    },
    {
      "inputs": [
        {
          "internalType": "address",
          "name": "newOwner",
          "type": "address"
        }
      ],
      "name": "transferOwnership",
      "outputs": [],
      "stateMutability": "nonpayable",
      "type": "function"
    }
  ],
  "transactionHash": "0x666225114b60d9c2ddb7798875757884d69b45968934d159e46398a8f5968ca8",
  "args": [
    "0x6f2dF7F1993319064d0C8d0Daa7b847ceA568367",
    "0x2a142E7C95C52e28f4E153766C837941C74F64b8"
  ],
  "numDeployments": 1,
  "solcInputHash": "efe7063cd66ab438b2f98e69b2646924",
  "bytecode": "0x60a060405234801561000f575f5ffd5b5060405161054f38038061054f83398101604081905261002e91610109565b816001600160a01b03811661005c57604051631e4fbdf760e01b81525f600482015260240160405180910390fd5b6100658161009f565b506001600160a01b03811661008d5760405163c1ab6dc160e01b815260040160405180910390fd5b6001600160a01b03166080525061013a565b5f80546001600160a01b038381166001600160a01b0319831681178455604051919092169283917f8be0079c531659141344cd1fd0a4f28419497f9722a3daafe3b4186f6b6457e09190a35050565b80516001600160a01b0381168114610104575f5ffd5b919050565b5f5f6040838503121561011a575f5ffd5b610123836100ee565b9150610131602084016100ee565b90509250929050565b6080516103f66101595f395f8181610149015261021201526103f65ff3fe608060405234801561000f575f5ffd5b5060043610610085575f3560e01c806386a301941161005857806386a30194146100e65780638da5cb5b1461010d578063f2fde38b14610131578063fc0c546a14610144575f5ffd5b8063270ef3851461008957806337c909ec146100b35780634e71d92d146100d4578063715018a6146100de575b5f5ffd5b61009564e8d4a5100081565b60405167ffffffffffffffff90911681526020015b60405180910390f35b6100bd6201518081565b60405165ffffffffffff90911681526020016100aa565b6100dc61016b565b005b6100dc6102b4565b6100bd6100f4366004610397565b60016020525f908152604090205465ffffffffffff1681565b5f546001600160a01b03165b6040516001600160a01b0390911681526020016100aa565b6100dc61013f366004610397565b6102c7565b6101197f000000000000000000000000000000000000000000000000000000000000000081565b335f9081526001602052604090205465ffffffffffff16428111156101b257604051635f91037360e01b815265ffffffffffff821660048201526024015b60405180910390fd5b5f6101c062015180426103c4565b335f8181526001602052604090819020805465ffffffffffff191665ffffffffffff851617905551634973582f60e01b8152600481019190915264e8d4a5100060248201529091506001600160a01b037f00000000000000000000000000000000000000000000000000000000000000001690634973582f906044015f604051808303815f87803b158015610253575f5ffd5b505af1158015610265573d5f5f3e3d5ffd5b50506040805164e8d4a51000815265ffffffffffff851660208201523393507f9c06bb9559c9015bc2f09a0f6d4759041e3fdb04f7f78f880aaeef41048323bc92500160405180910390a25050565b6102bc610304565b6102c55f610330565b565b6102cf610304565b6001600160a01b0381166102f857604051631e4fbdf760e01b81525f60048201526024016101a9565b61030181610330565b50565b5f546001600160a01b031633146102c55760405163118cdaa760e01b81523360048201526024016101a9565b5f80546001600160a01b038381167fffffffffffffffffffffffff0000000000000000000000000000000000000000831681178455604051919092169283917f8be0079c531659141344cd1fd0a4f28419497f9722a3daafe3b4186f6b6457e09190a35050565b5f602082840312156103a7575f5ffd5b81356001600160a01b03811681146103bd575f5ffd5b9392505050565b808201808211156103e357634e487b7160e01b5f52601160045260245ffd5b9291505056fea164736f6c634300081b000a",
  "devdoc": {
    "errors": {
      "OwnableInvalidOwner(address)": [
        {
          "details": "The owner is not a valid owner account. (eg. `address(0)`)"
        }
      ],
      "OwnableUnauthorizedAccount(address)": [
        {
          "details": "The caller account is not authorized to perform an operation."
        }
      ]
    },
    "kind": "dev",
    "methods": {
      "owner()": {
        "details": "Returns the address of the current owner."
      },
      "renounceOwnership()": {
        "details": "Leaves the contract without owner. It will not be possible to call `onlyOwner` functions. Can only be called by the current owner. NOTE: Renouncing ownership will leave the contract without an owner, thereby disabling any functionality that is only available to the owner."
      },
      "transferOwnership(address)": {
        "details": "Transfers ownership of the contract to a new account (`newOwner`). Can only be called by the current owner."
      }
    },
    "title": "CUSDCFaucet",
    "version": 1
  },
  "userdoc": {
    "kind": "user",
    "methods": {},
    "notice": "Fixed-rate faucet for the Phase demo token.",
    "version": 1
  },
  "storageLayout": {
    "storage": [
      {
        "astId": 43858,
        "contract": "contracts/CUSDCFaucet.sol:CUSDCFaucet",
        "label": "_owner",
        "offset": 0,
        "slot": "0",
        "type": "t_address"
      },
      {
        "astId": 44111,
        "contract": "contracts/CUSDCFaucet.sol:CUSDCFaucet",
        "label": "nextClaimTimes",
        "offset": 0,
        "slot": "1",
        "type": "t_mapping(t_address,t_uint48)"
      }
    ],
    "types": {
      "t_address": {
        "encoding": "inplace",
        "label": "address",
        "numberOfBytes": "20"
      },
      "t_mapping(t_address,t_uint48)": {
        "encoding": "mapping",
        "key": "t_address",
        "label": "mapping(address => uint48)",
        "numberOfBytes": "32",
        "value": "t_uint48"
      },
      "t_uint48": {
        "encoding": "inplace",
        "label": "uint48",
        "numberOfBytes": "6"
      }
    }
  }
}